S01B00004C616231305F436F6E63757272656E74534D732E7372656304
S113000045C0000060C000005EC000005CC000008D
S11300105AC0000058C0000056C0000054C0000080
S113002052C0000050C000004EC000004CC0000090
S11300304AC0000049C0000046C0000044C000009F
S113004042C0000040C000003EC000003CC00000B0
S11300503AC0000038C0000036C0000034C00000C0
S113006032C0000030C000002EC000002CC00000D0
S11300702AC0000028C0000026C0000024C00000E0
S113008022C0000020C000001EC0000011241FBEBA
S1130090CFEFD0E4DEBFCDBF11E0A0E0B1E0E4E1FA
S11300A0F3E000E00BBF02C007900D92A430B1074B
S11300B0D9F721E0A4E0B1E001C01D92AC30B20751
S11300C0E1F7DED025C19CCF1F920F920FB60F929D
S11300D011248F939F93AF93BF93809104019091C8
S11300E00501A0910601B09107010197A109B10989
S11300F08093040190930501A0930601B093070136
S1130100892B8A2B8B2B99F481E0809308018091B1
S1130110000190910101A0910201B091030180932B
S1130120040190930501A0930601B0930701BF91C8
S1130130AF919F918F910F900FBE0F901F901895C4
S1130140992334F08230910584F08230910539F09E
S11301508130910521F08230910559F406C088E080
S11301608093090181E090E008951092090182E0F2
S113017090E0089581309105C9F01CF4009781F056
S113018006C082309105C1F08330910549F0823078
S1130190910561F08330910579F08130910589F4FE
S11301A081E080930B0181E090E0089582E08093E8
S11301B00B0182E090E0089584E080930B0183E0DA
S11301C090E0089520B1009721F08130910571F0FD
S11301D007C041E030E02F3F09F440E0842F932F23
S11301E0009721F08130910531F0089510920A01B1
S11301F080E090E0089520E120930A01089500979B
S113020049F43091090120910B01232B30910A010B
S1130210232B25B908958BE0809381008DE790E02E
S1130220909389008093880082E080936F001092FD
S11302308500109284008091000190910101A091A9
S11302400201B09103018093040190930501A093EE
S11302500601B09307018FB780688FBF089560933C
S11302600001709301018093020190930301609354
S1130270040170930501809306019093070108958A
S113028011B88FEF82B984B915B8C5DF61E070E0A9
S113029080E090E0E4DFC2E0D0E00F2EFCE2EF2E3D
S11302A0FF24F394F02D08EE13E0C12CD12CA12CE3
S11302B0B12C083E83E0180730F08B2D90E040DF2E
S11302C0B82E00E010E08CE2E81681E0F80630F089
S11302D08A2D90E04FDFA82EE12CF12CC230D105FD
S11302E030F08C2D90E06EDFC82EC0E0D0E08D2D74
S11302F090E085DFD82E809108018823E1F31092E5
S113030008010F5F1F4F8FEFE81AF80A2196D1CF2B
S1070310F894FFCF8B
S107031401000000E0
S9030000FC
