:100000000C9446000C9465000C9465000C946500FB
:100010000C9465000C9465000C9465000C946500CC
:100020000C9465000C9465000C9465000C946500BC
:100030000C9465000C9490000C9465000C94650081
:100040000C9465000C9465000C9465000C9465009C
:100050000C9465000C9465000C9465000C9465008C
:100060000C9465000C9465000C9465000C9465007C
:100070000C9465000C9465000C9465000C9465006C
:100080000C9465000C9465000C94650011241FBE4F
:10009000CFEFD0E4DEBFCDBF11E0A0E0B1E0E4EBF4
:1000A000F5E000E00BBF02C007900D92A231B1074E
:1000B000D9F721E0A2E1B1E001C01D92AA31B20757
:1000C000E1F70E94F2000C94D8020C940000CF9348
:1000D000DF9300D01F92CDB7DEB789837B836A831D
:1000E00089818A3031F48A819B81BC018DE00E9434
:1000F000670080EC90E0FC018081882F90E08072A6
:100100009927892BB1F386EC90E02981FC012083AB
:1001100080E090E00F900F900F90DF91CF910895C5
:100120001F920F9200905F000F92112400905B00CD
:100130000F922F933F934F935F936F937F938F9380
:100140009F93AF93BF93EF93FF93CF93DF93CDB77D
:10015000DEB78091130190911401A0911501B09127
:1001600016010197A109B10980931301909314011D
:10017000A0931501B0931601809113019091140181
:10018000A0911501B0911601892B8A2B8B2B91F42C
:100190000E949F0280910E0190910F01A091100189
:1001A000B09111018093130190931401A093150154
:1001B000B09316010000DF91CF91FF91EF91BF91B5
:1001C000AF919F918F917F916F915F914F913F91EF
:1001D0002F910F9000925B000F9000925F000F90A4
:1001E0001F901895CF93DF93CDB7DEB72F970FB63B
:1001F000F894DEBF0FBECDBF81E290E0FC0110821B
:1002000082E290E02FEFFC01208384E290E02FEF68
:10021000FC01208385E290E0FC0110821A821982A1
:100220001C821B821E821D8218861F8281E08F879E
:1002300088EE93E09A8789878CE291E09C878B8790
:1002400082E090E09E878D870E945C028F85882FD8
:1002500090E0A0E0B0E0BC01CD010E94AA02898537
:100260009A85883E934040F089819A810E947E0160
:100270009A8389831A8619868B859C858C32914056
:1002800040F08B819C810E94B4019C838B831C86EF
:100290001B868D859E85029740F08F8198850E94F0
:1002A000020298878F831E861D868D819E810E9403
:1002B0003B029E838D830000809112018823E1F32D
:1002C000109212018F85882F90E029853A85820F40
:1002D000931F9A8789878F85882F90E02B853C858F
:1002E000820F931F9C878B878F85882F90E02D85A9
:1002F0003E85820F931F9E878D87B1CFCF93DF936B
:1003000000D0CDB7DEB79A83898389819A81813005
:10031000910551F08230910561F0892B79F482E0EA
:1003200090E09A8389830AC082E090E09A8389836F
:1003300005C081E090E09A838983000089819A81D9
:100340008130910519F0029729F007C088E0809369
:10035000170103C010921701000089819A810F9044
:100360000F90DF91CF910895CF93DF9300D0CDB759
:10037000DEB79A83898389819A818130910589F0DA
:10038000823091051CF4892B39F01AC08230910516
:1003900069F0039781F014C081E090E09A8389832B
:1003A0000FC082E090E09A8389830AC083E090E0E6
:1003B0009A83898305C081E090E09A838983000055
:1003C00089819A818130910549F08230910594F0BC
:1003D0008230910539F0039749F00DC081E0809398
:1003E000190109C082E08093190105C084E080935F
:1003F000190101C0000089819A810F900F90DF914F
:10040000CF910895CF93DF9300D01F92CDB7DEB781
:100410009B838A8380E290E0FC01808180958470D8
:1004200089838A819B81009719F0019759F00DC04B
:1004300081E09981992309F480E0882F90E09B83E3
:100440008A8303C01B821A8200008A819B810097E5
:1004500019F0019721F007C01092180104C080E143
:100460008093180100008A819B810F900F900F905C
:10047000DF91CF910895CF93DF9300D0CDB7DEB752
:100480009A83898389819A81892B79F41A821982C6
:1004900085E290E03091170120911901322B2091D3
:1004A0001801232BFC012083000089819A810F9081
:1004B0000F90DF91CF910895CF93DF93CDB7DEB743
:1004C00081E890E02BE0FC01208388E890E02DE7B4
:1004D00030E0FC01318320838FE690E022E0FC01D4
:1004E000208384E890E0FC011182108280910E014B
:1004F00090910F01A0911001B0911101809313010F
:1005000090931401A0931501B09316018FE590E02C
:100510002FE530E0F90120812068FC0120830000F4
:10052000DF91CF910895CF93DF93CDB7DEB781E808
:1005300090E0FC0110820000DF91CF910895CF93ED
:10054000DF93CDB7DEB781E0809312010000DF9129
:10055000CF910895CF93DF9300D000D0CDB7DEB711
:1005600069837A838B839C8389819A81AB81BC81E7
:1005700080930E0190930F01A0931001B09311018D
:1005800080910E0190910F01A0911001B091110185
:100590008093130190931401A0931501B093160159
:1005A00000000F900F900F900F90DF91CF91089562
:0405B000F894FFCFED
:1005B40000000002000000006700000000000100CD
:0205C400000035
:00000001FF
