:1000000045C0000060C000005EC000005CC0000091
:100010005AC0000058C0000056C0000054C0000084
:1000200052C0000050C000004EC000004CC0000094
:100030004AC0000049C0000046C0000044C00000A3
:1000400042C0000040C000003EC000003CC00000B4
:100050003AC0000038C0000036C0000034C00000C4
:1000600032C0000030C000002EC000002CC00000D4
:100070002AC0000028C0000026C0000024C00000E4
:1000800022C0000020C000001EC0000011241FBEBE
:10009000CFEFD0E4DEBFCDBF11E0A0E0B1E0E2EBF6
:1000A000F2E000E00BBF02C007900D92A430B10750
:1000B000D9F721E0A4E0B1E001C01D92AB30B20756
:1000C000E1F7C2D0F4C09CCF1F920F920FB60F92EF
:1000D00011248F939F93AF93BF93809106019091CA
:1000E0000701A0910801B09109010197A109B10987
:1000F0008093060190930701A0930801B093090132
:10010000892B8A2B8B2B99F481E080930A018091B3
:10011000000190910101A0910201B091030180932F
:10012000060190930701A0930801B0930901BF91C4
:10013000AF919F918F910F900FBE0F901F901895C8
:10014000992334F08230910584F08230910539F0A2
:100150008130910521F08230910559F406C088E084
:100160008093040181E090E008951092040182E000
:1001700090E0089581309105C9F01CF4009781F05A
:1001800006C082309105C1F08330910549F082307C
:10019000910561F08330910579F08130910589F402
:1001A00081E08093050181E090E0089582E08093F2
:1001B000050182E090E0089584E08093050183E0EA
:1001C00090E00895009739F43091040120910501E1
:1001D000232B209304012091040125B908958BE07D
:1001E000809381008DE790E0909389008093880050
:1001F00082E080936F0010928500109284008091BD
:10020000000190910101A0910201B091030180933E
:10021000060190930701A0930801B09309018FB7DD
:1002200080688FBF089560930001709301018093EF
:10023000020190930301609306017093070180937C
:1002400008019093090108958FEF84B915B8C7DFAD
:1002500064E670E080E090E0E6DF08EE13E0C8EED0
:10026000D3E0F12CD12CE12CC83E83E0D80731F447
:100270008E2D90E065DFE82EC0E0D0E0083E83E000
:10028000180731F48D2D90E075DFD82E00E010E0D6
:100290008F2D90E097DFF82E80910A018823E1F3FB
:1002A00010920A01CC59DF4F0C591F4FDDCFF89443
:0202B000FFCF7E
:0402B2000100000047
:00000001FF
