:1000000045C0000060C000005EC000005CC0000091
:100010005AC0000058C0000056C0000054C0000084
:1000200052C0000050C000004EC000004CC0000094
:100030004AC0000049C0000046C0000044C00000A3
:1000400042C0000040C000003EC000003CC00000B4
:100050003AC0000038C0000036C0000034C00000C4
:1000600032C0000030C000002EC000002CC00000D4
:100070002AC0000028C0000026C0000024C00000E4
:1000800022C0000020C000001EC0000011241FBEBE
:10009000CFEFD0E4DEBFCDBF11E0A0E0B1E0E8EAF1
:1000A000F2E000E00BBF02C007900D92A430B10750
:1000B000D9F721E0A4E0B1E001C01D92AB30B20756
:1000C000E1F7BED0EFC09CCF1F920F920FB60F92F8
:1000D00011248F939F93AF93BF93809105019091CB
:1000E0000601A0910701B09108010197A109B1098A
:1000F0008093050190930601A0930701B093080136
:10010000892B8A2B8B2B99F481E0809309018091B4
:10011000000190910101A0910201B091030180932F
:10012000050190930601A0930701B0930801BF91C8
:10013000AF919F918F910F900FBE0F901F901895C8
:10014000992334F08230910584F08230910539F0A2
:100150008130910521F08230910559F406C088E084
:100160008093040181E090E008951092040182E000
:1001700090E0089581309105C9F01CF4009781F05A
:1001800006C082309105C1F08330910549F082307C
:10019000910561F08330910579F08130910589F402
:1001A00081E080930A0181E090E0089582E08093ED
:1001B0000A0182E090E0089584E080930A0183E0E0
:1001C00090E00895009731F43091040120910A01E4
:1001D000232B25B908958BE0809381008DE790E073
:1001E000909389008093880082E080936F00109242
:1001F0008500109284008091000190910101A091EE
:100200000201B09103018093050190930601A09330
:100210000701B09308018FB780688FBF089560937E
:100220000001709301018093020190930301609398
:1002300005017093060180930701909308010895CA
:100240008FEF84B915B8C7DF62E370E080E090E01B
:10025000E6DF0CE211E0C8EED3E0F12CD12CE12C6A
:10026000C83E83E0D80730F08E2D90E069DFE82E9D
:10027000C0E0D0E00C3281E0180730F08D2D90E026
:1002800079DFD82E00E010E08F2D90E09BDFF82E74
:10029000809109018823E1F310920901E2960E5C36
:0802A0001F4FDECFF894FFCFE1
:0402A8000100000051
:00000001FF
